{
  "abi": [
    {
      "type": "constructor",
      "inputs": [
        {
          "name": "_pyth",
          "type": "address",
          "internalType": "address"
        },
        {
          "name": "_xauUsdPriceId",
          "type": "bytes32",
          "internalType": "bytes32"
        }
      ],
      "stateMutability": "nonpayable"
    },
    {
      "type": "function",
      "name": "XAU_USD_PRICE_ID",
      "inputs": [],
      "outputs": [
        {
          "name": "",
          "type": "bytes32",
          "internalType": "bytes32"
        }
      ],
      "stateMutability": "view"
    },
    {
      "type": "function",
      "name": "getGoldPrice",
      "inputs": [],
      "outputs": [
        {
          "name": "",
          "type": "uint256",
          "internalType": "uint256"
        }
      ],
      "stateMutability": "view"
    },
    {
      "type": "function",
      "name": "pyth",
      "inputs": [],
      "outputs": [
        {
          "name": "",
          "type": "address",
          "internalType": "contract IPyth"
        }
      ],
      "stateMutability": "view"
    }
  ],
  "bytecode": {
    "object": "0x60c060405234801561000f575f5ffd5b5060405161079338038061079383398181016040528101906100319190610105565b8173ffffffffffffffffffffffffffffffffffffffff1660808173ffffffffffffffffffffffffffffffffffffffff16815250508060a081815250505050610143565b5f5ffd5b5f73ffffffffffffffffffffffffffffffffffffffff82169050919050565b5f6100a182610078565b9050919050565b6100b181610097565b81146100bb575f5ffd5b50565b5f815190506100cc816100a8565b92915050565b5f819050919050565b6100e4816100d2565b81146100ee575f5ffd5b50565b5f815190506100ff816100db565b92915050565b5f5f6040838503121561011b5761011a610074565b5b5f610128858286016100be565b9250506020610139858286016100f1565b9150509250929050565b60805160a0516106236101705f395f8181609f015261010101525f818160c5015261020701526106235ff3fe608060405234801561000f575f5ffd5b506004361061003f575f3560e01c8063844a05ca14610043578063da6bae1014610061578063f98d06f01461007f575b5f5ffd5b61004b61009d565b6040516100589190610241565b60405180910390f35b6100696100c1565b6040516100769190610272565b60405180910390f35b610087610205565b6040516100949190610305565b60405180910390f35b7f000000000000000000000000000000000000000000000000000000000000000081565b5f5f7f000000000000000000000000000000000000000000000000000000000000000073ffffffffffffffffffffffffffffffffffffffff166396834ad37f00000000000000000000000000000000000000000000000000000000000000006040518263ffffffff1660e01b815260040161013c9190610241565b608060405180830381865afa158015610157573d5f5f3e3d5ffd5b505050506040513d601f19601f8201168201806040525081019061017b91906104ff565b905073__$65759db3abb9c68754ca4eab7e42deed6d$__63b55522b2825f0151836040015160126040518463ffffffff1660e01b81526004016101c09392919061058d565b602060405180830381865af41580156101db573d5f5f3e3d5ffd5b505050506040513d601f19601f820116820180604052508101906101ff91906105c2565b91505090565b7f000000000000000000000000000000000000000000000000000000000000000081565b5f819050919050565b61023b81610229565b82525050565b5f6020820190506102545f830184610232565b92915050565b5f819050919050565b61026c8161025a565b82525050565b5f6020820190506102855f830184610263565b92915050565b5f73ffffffffffffffffffffffffffffffffffffffff82169050919050565b5f819050919050565b5f6102cd6102c86102c38461028b565b6102aa565b61028b565b9050919050565b5f6102de826102b3565b9050919050565b5f6102ef826102d4565b9050919050565b6102ff816102e5565b82525050565b5f6020820190506103185f8301846102f6565b92915050565b5f604051905090565b5f5ffd5b5f5ffd5b5f601f19601f8301169050919050565b7f4e487b71000000000000000000000000000000000000000000000000000000005f52604160045260245ffd5b6103758261032f565b810181811067ffffffffffffffff821117156103945761039361033f565b5b80604052505050565b5f6103a661031e565b90506103b2828261036c565b919050565b5f8160070b9050919050565b6103cc816103b7565b81146103d6575f5ffd5b50565b5f815190506103e7816103c3565b92915050565b5f67ffffffffffffffff82169050919050565b610409816103ed565b8114610413575f5ffd5b50565b5f8151905061042481610400565b92915050565b5f8160030b9050919050565b61043f8161042a565b8114610449575f5ffd5b50565b5f8151905061045a81610436565b92915050565b6104698161025a565b8114610473575f5ffd5b50565b5f8151905061048481610460565b92915050565b5f6080828403121561049f5761049e61032b565b5b6104a9608061039d565b90505f6104b8848285016103d9565b5f8301525060206104cb84828501610416565b60208301525060406104df8482850161044c565b60408301525060606104f384828501610476565b60608301525092915050565b5f6080828403121561051457610513610327565b5b5f6105218482850161048a565b91505092915050565b610533816103b7565b82525050565b6105428161042a565b82525050565b5f819050919050565b5f60ff82169050919050565b5f61057761057261056d84610548565b6102aa565b610551565b9050919050565b6105878161055d565b82525050565b5f6060820190506105a05f83018661052a565b6105ad6020830185610539565b6105ba604083018461057e565b949350505050565b5f602082840312156105d7576105d6610327565b5b5f6105e484828501610476565b9150509291505056fea2646970667358221220344a8887e399fbebfe3c2ccb3ff6e62411e236188523f8ecd8eb86217b8426e364736f6c634300081e0033",
    "linkReferences": {
      "node_modules/@pythnetwork/pyth-sdk-solidity/PythUtils.sol": {
        "PythUtils": [
          {
            "start": 751,
            "length": 20
          }
        ]
      }
    }
  },
  "methodIdentifiers": {
    "XAU_USD_PRICE_ID()": "844a05ca",
    "getGoldPrice()": "da6bae10",
    "pyth()": "f98d06f0"
  },
  "id": 23
}