{
  "abi": [
    {
      "type": "constructor",
      "inputs": [
        {
          "name": "_oracle",
          "type": "address",
          "internalType": "address"
        }
      ],
      "stateMutability": "nonpayable"
    },
    {
      "type": "receive",
      "stateMutability": "payable"
    },
    {
      "type": "function",
      "name": "closePosition",
      "inputs": [
        {
          "name": "sizeDelta",
          "type": "uint256",
          "internalType": "uint256"
        }
      ],
      "outputs": [],
      "stateMutability": "nonpayable"
    },
    {
      "type": "function",
      "name": "initMarginBps",
      "inputs": [],
      "outputs": [
        {
          "name": "",
          "type": "uint256",
          "internalType": "uint256"
        }
      ],
      "stateMutability": "view"
    },
    {
      "type": "function",
      "name": "liquidate",
      "inputs": [
        {
          "name": "trader",
          "type": "address",
          "internalType": "address"
        }
      ],
      "outputs": [],
      "stateMutability": "nonpayable"
    },
    {
      "type": "function",
      "name": "maintMarginBps",
      "inputs": [],
      "outputs": [
        {
          "name": "",
          "type": "uint256",
          "internalType": "uint256"
        }
      ],
      "stateMutability": "view"
    },
    {
      "type": "function",
      "name": "maxNotional",
      "inputs": [
        {
          "name": "marginUsd",
          "type": "uint256",
          "internalType": "uint256"
        }
      ],
      "outputs": [
        {
          "name": "",
          "type": "uint256",
          "internalType": "uint256"
        }
      ],
      "stateMutability": "view"
    },
    {
      "type": "function",
      "name": "openPosition",
      "inputs": [
        {
          "name": "isLong",
          "type": "bool",
          "internalType": "bool"
        },
        {
          "name": "sizeDelta",
          "type": "uint256",
          "internalType": "uint256"
        },
        {
          "name": "marginDelta",
          "type": "uint256",
          "internalType": "uint256"
        }
      ],
      "outputs": [],
      "stateMutability": "payable"
    },
    {
      "type": "function",
      "name": "oracle",
      "inputs": [],
      "outputs": [
        {
          "name": "",
          "type": "address",
          "internalType": "contract GoldOracleAdapter"
        }
      ],
      "stateMutability": "view"
    },
    {
      "type": "function",
      "name": "owner",
      "inputs": [],
      "outputs": [
        {
          "name": "",
          "type": "address",
          "internalType": "address"
        }
      ],
      "stateMutability": "view"
    },
    {
      "type": "function",
      "name": "positions",
      "inputs": [
        {
          "name": "",
          "type": "address",
          "internalType": "address"
        }
      ],
      "outputs": [
        {
          "name": "size",
          "type": "int256",
          "internalType": "int256"
        },
        {
          "name": "entryPrice",
          "type": "int256",
          "internalType": "int256"
        },
        {
          "name": "margin",
          "type": "int256",
          "internalType": "int256"
        }
      ],
      "stateMutability": "view"
    },
    {
      "type": "function",
      "name": "protocolFees",
      "inputs": [],
      "outputs": [
        {
          "name": "",
          "type": "uint256",
          "internalType": "uint256"
        }
      ],
      "stateMutability": "view"
    },
    {
      "type": "function",
      "name": "takerFeeBps",
      "inputs": [],
      "outputs": [
        {
          "name": "",
          "type": "uint256",
          "internalType": "uint256"
        }
      ],
      "stateMutability": "view"
    },
    {
      "type": "function",
      "name": "withdrawFees",
      "inputs": [
        {
          "name": "to",
          "type": "address",
          "internalType": "address"
        },
        {
          "name": "amount",
          "type": "uint256",
          "internalType": "uint256"
        }
      ],
      "outputs": [],
      "stateMutability": "nonpayable"
    },
    {
      "type": "event",
      "name": "FeesWithdrawn",
      "inputs": [
        {
          "name": "to",
          "type": "address",
          "indexed": true,
          "internalType": "address"
        },
        {
          "name": "amount",
          "type": "uint256",
          "indexed": false,
          "internalType": "uint256"
        }
      ],
      "anonymous": false
    },
    {
      "type": "event",
      "name": "Liquidated",
      "inputs": [
        {
          "name": "trader",
          "type": "address",
          "indexed": true,
          "internalType": "address"
        },
        {
          "name": "liquidator",
          "type": "address",
          "indexed": true,
          "internalType": "address"
        },
        {
          "name": "reward",
          "type": "uint256",
          "indexed": false,
          "internalType": "uint256"
        }
      ],
      "anonymous": false
    },
    {
      "type": "event",
      "name": "PositionClosed",
      "inputs": [
        {
          "name": "trader",
          "type": "address",
          "indexed": true,
          "internalType": "address"
        },
        {
          "name": "sizeClosed",
          "type": "uint256",
          "indexed": false,
          "internalType": "uint256"
        },
        {
          "name": "pnl",
          "type": "int256",
          "indexed": false,
          "internalType": "int256"
        },
        {
          "name": "price",
          "type": "uint256",
          "indexed": false,
          "internalType": "uint256"
        }
      ],
      "anonymous": false
    },
    {
      "type": "event",
      "name": "PositionOpened",
      "inputs": [
        {
          "name": "trader",
          "type": "address",
          "indexed": true,
          "internalType": "address"
        },
        {
          "name": "isLong",
          "type": "bool",
          "indexed": false,
          "internalType": "bool"
        },
        {
          "name": "size",
          "type": "uint256",
          "indexed": false,
          "internalType": "uint256"
        },
        {
          "name": "margin",
          "type": "uint256",
          "indexed": false,
          "internalType": "uint256"
        },
        {
          "name": "price",
          "type": "uint256",
          "indexed": false,
          "internalType": "uint256"
        }
      ],
      "anonymous": false
    }
  ],
  "bytecode": {
    "object": "0x60a06040526103e86001556101f46002556005600355348015610020575f5ffd5b50604051611e5e380380611e5e83398181016040528101906100429190610121565b60015f819055508073ffffffffffffffffffffffffffffffffffffffff1660808173ffffffffffffffffffffffffffffffffffffffff16815250503360065f6101000a81548173ffffffffffffffffffffffffffffffffffffffff021916908373ffffffffffffffffffffffffffffffffffffffff1602179055505061014c565b5f5ffd5b5f73ffffffffffffffffffffffffffffffffffffffff82169050919050565b5f6100f0826100c7565b9050919050565b610100816100e6565b811461010a575f5ffd5b50565b5f8151905061011b816100f7565b92915050565b5f60208284031215610136576101356100c3565b5b5f6101438482850161010d565b91505092915050565b608051611ce56101795f395f81816102d60152818161064b015281816107020152610d080152611ce55ff3fe6080604052600436106100aa575f3560e01c80638da5cb5b116100635780638da5cb5b146101d5578063a126d601146101ff578063ad3b1b4714610227578063d448eebc1461024f578063e325573114610279578063ff52d05114610295576100b1565b806305bf2408146100b55780631ad8b03b146100df5780632f8655681461010957806355f57510146101315780637dc0d1d01461016f5780638c2d61a214610199576100b1565b366100b157005b5f5ffd5b3480156100c0575f5ffd5b506100c96102bf565b6040516100d69190611180565b60405180910390f35b3480156100ea575f5ffd5b506100f36102c5565b6040516101009190611180565b60405180910390f35b348015610114575f5ffd5b5061012f600480360381019061012a91906111f7565b6102cb565b005b34801561013c575f5ffd5b50610157600480360381019061015291906111f7565b610623565b6040516101669392919061123a565b60405180910390f35b34801561017a575f5ffd5b50610183610649565b60405161019091906112ca565b60405180910390f35b3480156101a4575f5ffd5b506101bf60048036038101906101ba919061130d565b61066d565b6040516101cc9190611180565b60405180910390f35b3480156101e0575f5ffd5b506101e9610690565b6040516101f69190611347565b60405180910390f35b34801561020a575f5ffd5b506102256004803603810190610220919061130d565b6106b5565b005b348015610232575f5ffd5b5061024d60048036038101906102489190611360565b610af1565b005b34801561025a575f5ffd5b50610263610c73565b6040516102709190611180565b60405180910390f35b610293600480360381019061028e91906113d3565b610c79565b005b3480156102a0575f5ffd5b506102a96110b2565b6040516102b69190611180565b60405180910390f35b60025481565b60055481565b6102d36110b8565b5f7f000000000000000000000000000000000000000000000000000000000000000073ffffffffffffffffffffffffffffffffffffffff1663da6bae106040518163ffffffff1660e01b8152600401602060405180830381865afa15801561033d573d5f5f3e3d5ffd5b505050506040513d601f19601f820116820180604052508101906103619190611437565b90505f60045f8473ffffffffffffffffffffffffffffffffffffffff1673ffffffffffffffffffffffffffffffffffffffff1681526020019081526020015f2090505f815f0154036103e8576040517f08c379a00000000000000000000000000000000000000000000000000000000081526004016103df906114bc565b60405180910390fd5b5f6103f6825f015484611105565b90505f670de0b6b3a7640000835f01548460010154866104169190611507565b6104209190611547565b61042a91906115ea565b90505f81846002015461043d9190611652565b90505f8113610481576040517f08c379a0000000000000000000000000000000000000000000000000000000008152600401610478906116dd565b60405180910390fd5b5f6127106002548561049391906116fb565b61049d919061173c565b90508082106104e1576040517f08c379a00000000000000000000000000000000000000000000000000000000081526004016104d8906117b6565b60405180910390fd5b5f600a836104ef919061173c565b905080836104fd91906117d4565b60055f82825461050d9190611807565b9250508190555060045f8973ffffffffffffffffffffffffffffffffffffffff1673ffffffffffffffffffffffffffffffffffffffff1681526020019081526020015f205f5f82015f9055600182015f9055600282015f905550503373ffffffffffffffffffffffffffffffffffffffff166108fc8290811502906040515f60405180830381858888f193505050501580156105ab573d5f5f3e3d5ffd5b503373ffffffffffffffffffffffffffffffffffffffff168873ffffffffffffffffffffffffffffffffffffffff167fde0aa27286f5cb3a4ed853dc4823ead62d63e92cdf13de09d6aece56970721a4836040516106099190611180565b60405180910390a350505050505050610620611135565b50565b6004602052805f5260405f205f91509050805f0154908060010154908060020154905083565b7f000000000000000000000000000000000000000000000000000000000000000081565b5f6001546127108361067f91906116fb565b610689919061173c565b9050919050565b60065f9054906101000a900473ffffffffffffffffffffffffffffffffffffffff1681565b6106bd6110b8565b5f81116106ff576040517f08c379a00000000000000000000000000000000000000000000000000000000081526004016106f690611884565b60405180910390fd5b5f7f000000000000000000000000000000000000000000000000000000000000000073ffffffffffffffffffffffffffffffffffffffff1663da6bae106040518163ffffffff1660e01b8152600401602060405180830381865afa158015610769573d5f5f3e3d5ffd5b505050506040513d601f19601f8201168201806040525081019061078d9190611437565b90505f60045f3373ffffffffffffffffffffffffffffffffffffffff1673ffffffffffffffffffffffffffffffffffffffff1681526020019081526020015f2090505f815f015403610814576040517f08c379a000000000000000000000000000000000000000000000000000000000815260040161080b906114bc565b60405180910390fd5b5f5f825f01541361082e5783610829906118a2565b610830565b835b905061083e825f015461113e565b6108478261113e565b1115610888576040517f08c379a000000000000000000000000000000000000000000000000000000000815260040161087f90611932565b60405180910390fd5b5f670de0b6b3a7640000828460010154866108a39190611507565b6108ad9190611547565b6108b791906115ea565b905080836002015f8282546108cc9190611652565b925050819055505f612710600354670de0b6b3a764000087896108ef91906116fb565b6108f9919061173c565b61090391906116fb565b61090d919061173c565b90508084600201541215610956576040517f08c379a000000000000000000000000000000000000000000000000000000000815260040161094d9061199a565b60405180910390fd5b80846002015f8282546109699190611507565b925050819055508060055f8282546109819190611807565b9250508190555082845f015f82825461099a9190611507565b925050819055505f845f015403610a8f575f8460020154905060045f3373ffffffffffffffffffffffffffffffffffffffff1673ffffffffffffffffffffffffffffffffffffffff1681526020019081526020015f205f5f82015f9055600182015f9055600282015f905550505f8113610a49576040517f08c379a0000000000000000000000000000000000000000000000000000000008152600401610a40906116dd565b60405180910390fd5b3373ffffffffffffffffffffffffffffffffffffffff166108fc8290811502906040515f60405180830381858888f19350505050158015610a8c573d5f5f3e3d5ffd5b50505b3373ffffffffffffffffffffffffffffffffffffffff167f16783b3f0676d6e63220b161cedd5415bd909d2f96353db363fbd217a00971b4878488604051610ad9939291906119b8565b60405180910390a25050505050610aee611135565b50565b60065f9054906101000a900473ffffffffffffffffffffffffffffffffffffffff1673ffffffffffffffffffffffffffffffffffffffff163373ffffffffffffffffffffffffffffffffffffffff1614610b80576040517f08c379a0000000000000000000000000000000000000000000000000000000008152600401610b7790611a37565b60405180910390fd5b600554811115610bc5576040517f08c379a0000000000000000000000000000000000000000000000000000000008152600401610bbc90611a9f565b60405180910390fd5b8060055f828254610bd691906117d4565b925050819055508173ffffffffffffffffffffffffffffffffffffffff166108fc8290811502906040515f60405180830381858888f19350505050158015610c20573d5f5f3e3d5ffd5b508173ffffffffffffffffffffffffffffffffffffffff167fc0819c13be868895eb93e40eaceb96de976442fa1d404e5c55f14bb65a8c489a82604051610c679190611180565b60405180910390a25050565b60035481565b610c816110b8565b5f8211610cc3576040517f08c379a0000000000000000000000000000000000000000000000000000000008152600401610cba90611884565b60405180910390fd5b803414610d05576040517f08c379a0000000000000000000000000000000000000000000000000000000008152600401610cfc90611b07565b60405180910390fd5b5f7f000000000000000000000000000000000000000000000000000000000000000073ffffffffffffffffffffffffffffffffffffffff1663da6bae106040518163ffffffff1660e01b8152600401602060405180830381865afa158015610d6f573d5f5f3e3d5ffd5b505050506040513d601f19601f82011682018060405250810190610d939190611437565b90505f60045f3373ffffffffffffffffffffffffffffffffffffffff1673ffffffffffffffffffffffffffffffffffffffff1681526020019081526020015f20905082816002015f828254610de89190611652565b925050819055505f85610e045784610dff906118a2565b610e06565b845b90505f670de0b6b3a76400008487610e1e91906116fb565b610e28919061173c565b90505f61271060035483610e3c91906116fb565b610e46919061173c565b90508084600201541215610e8f576040517f08c379a0000000000000000000000000000000000000000000000000000000008152600401610e869061199a565b60405180910390fd5b80846002015f828254610ea29190611507565b925050819055508060055f828254610eba9190611807565b925050819055505f845f015403610ee15782845f0181905550848460010181905550610f9a565b5f845f0154138015610ef257505f83135b80610f0a57505f845f0154128015610f0957505f83125b5b15610f6b575f83855f0154610f1f9190611652565b9050808487610f2e9190611547565b865f01548760010154610f419190611547565b610f4b9190611652565b610f5591906115ea565b856001018190555080855f018190555050610f99565b82845f015f828254610f7d9190611652565b925050819055505f845f015403610f98575f84600101819055505b5b5b5f845f015403610fdf576040517f08c379a0000000000000000000000000000000000000000000000000000000008152600401610fd690611b6f565b60405180910390fd5b5f610fed856002015461115f565b90505f610ffd865f015488611105565b90506110088261066d565b81111561104a576040517f08c379a000000000000000000000000000000000000000000000000000000000815260040161104190611bd7565b60405180910390fd5b3373ffffffffffffffffffffffffffffffffffffffff167fec986bf3618c728c71c28d6cc279738fb550cf429cc747148a1ec300492fdea08b8b8b8b6040516110969493929190611c04565b60405180910390a2505050505050506110ad611135565b505050565b60015481565b60025f54036110fc576040517f08c379a00000000000000000000000000000000000000000000000000000000081526004016110f390611c91565b60405180910390fd5b60025f81905550565b5f670de0b6b3a7640000826111198561113e565b61112391906116fb565b61112d919061173c565b905092915050565b60015f81905550565b5f5f8212156111565781611151906118a2565b611158565b815b9050919050565b5f819050919050565b5f819050919050565b61117a81611168565b82525050565b5f6020820190506111935f830184611171565b92915050565b5f5ffd5b5f73ffffffffffffffffffffffffffffffffffffffff82169050919050565b5f6111c68261119d565b9050919050565b6111d6816111bc565b81146111e0575f5ffd5b50565b5f813590506111f1816111cd565b92915050565b5f6020828403121561120c5761120b611199565b5b5f611219848285016111e3565b91505092915050565b5f819050919050565b61123481611222565b82525050565b5f60608201905061124d5f83018661122b565b61125a602083018561122b565b611267604083018461122b565b949350505050565b5f819050919050565b5f61129261128d6112888461119d565b61126f565b61119d565b9050919050565b5f6112a382611278565b9050919050565b5f6112b482611299565b9050919050565b6112c4816112aa565b82525050565b5f6020820190506112dd5f8301846112bb565b92915050565b6112ec81611168565b81146112f6575f5ffd5b50565b5f81359050611307816112e3565b92915050565b5f6020828403121561132257611321611199565b5b5f61132f848285016112f9565b91505092915050565b611341816111bc565b82525050565b5f60208201905061135a5f830184611338565b92915050565b5f5f6040838503121561137657611375611199565b5b5f611383858286016111e3565b9250506020611394858286016112f9565b9150509250929050565b5f8115159050919050565b6113b28161139e565b81146113bc575f5ffd5b50565b5f813590506113cd816113a9565b92915050565b5f5f5f606084860312156113ea576113e9611199565b5b5f6113f7868287016113bf565b9350506020611408868287016112f9565b9250506040611419868287016112f9565b9150509250925092565b5f81519050611431816112e3565b92915050565b5f6020828403121561144c5761144b611199565b5b5f61145984828501611423565b91505092915050565b5f82825260208201905092915050565b7f6e6f20706f7300000000000000000000000000000000000000000000000000005f82015250565b5f6114a6600683611462565b91506114b182611472565b602082019050919050565b5f6020820190508181035f8301526114d38161149a565b9050919050565b7f4e487b71000000000000000000000000000000000000000000000000000000005f52601160045260245ffd5b5f61151182611222565b915061151c83611222565b925082820390508181125f8412168282135f851215161715611541576115406114da565b5b92915050565b5f61155182611222565b915061155c83611222565b925082820261156a81611222565b91507f800000000000000000000000000000000000000000000000000000000000000084145f841216156115a1576115a06114da565b5b82820584148315176115b6576115b56114da565b5b5092915050565b7f4e487b71000000000000000000000000000000000000000000000000000000005f52601260045260245ffd5b5f6115f482611222565b91506115ff83611222565b92508261160f5761160e6115bd565b5b60015f0383147f800000000000000000000000000000000000000000000000000000000000000083141615611647576116466114da565b5b828205905092915050565b5f61165c82611222565b915061166783611222565b92508282019050828112155f8312168382125f84121516171561168d5761168c6114da565b5b92915050565b7f62616e6b727570740000000000000000000000000000000000000000000000005f82015250565b5f6116c7600883611462565b91506116d282611693565b602082019050919050565b5f6020820190508181035f8301526116f4816116bb565b9050919050565b5f61170582611168565b915061171083611168565b925082820261171e81611168565b91508282048414831517611735576117346114da565b5b5092915050565b5f61174682611168565b915061175183611168565b925082611761576117606115bd565b5b828204905092915050565b7f73616665000000000000000000000000000000000000000000000000000000005f82015250565b5f6117a0600483611462565b91506117ab8261176c565b602082019050919050565b5f6020820190508181035f8301526117cd81611794565b9050919050565b5f6117de82611168565b91506117e983611168565b9250828203905081811115611801576118006114da565b5b92915050565b5f61181182611168565b915061181c83611168565b9250828201905080821115611834576118336114da565b5b92915050565b7f73697a653d3000000000000000000000000000000000000000000000000000005f82015250565b5f61186e600683611462565b91506118798261183a565b602082019050919050565b5f6020820190508181035f83015261189b81611862565b9050919050565b5f6118ac82611222565b91507f800000000000000000000000000000000000000000000000000000000000000082036118de576118dd6114da565b5b815f039050919050565b7f746f6f206d7563680000000000000000000000000000000000000000000000005f82015250565b5f61191c600883611462565b9150611927826118e8565b602082019050919050565b5f6020820190508181035f83015261194981611910565b9050919050565b7f6665653e6d617267696e000000000000000000000000000000000000000000005f82015250565b5f611984600a83611462565b915061198f82611950565b602082019050919050565b5f6020820190508181035f8301526119b181611978565b9050919050565b5f6060820190506119cb5f830186611171565b6119d8602083018561122b565b6119e56040830184611171565b949350505050565b7f6f776e65720000000000000000000000000000000000000000000000000000005f82015250565b5f611a21600583611462565b9150611a2c826119ed565b602082019050919050565b5f6020820190508181035f830152611a4e81611a15565b9050919050565b7f65786365656473000000000000000000000000000000000000000000000000005f82015250565b5f611a89600783611462565b9150611a9482611a55565b602082019050919050565b5f6020820190508181035f830152611ab681611a7d565b9050919050565b7f6261642076616c756500000000000000000000000000000000000000000000005f82015250565b5f611af1600983611462565b9150611afc82611abd565b602082019050919050565b5f6020820190508181035f830152611b1e81611ae5565b9050919050565b7f7a65726f000000000000000000000000000000000000000000000000000000005f82015250565b5f611b59600483611462565b9150611b6482611b25565b602082019050919050565b5f6020820190508181035f830152611b8681611b4d565b9050919050565b7f6d6178206c6576657261676500000000000000000000000000000000000000005f82015250565b5f611bc1600c83611462565b9150611bcc82611b8d565b602082019050919050565b5f6020820190508181035f830152611bee81611bb5565b9050919050565b611bfe8161139e565b82525050565b5f608082019050611c175f830187611bf5565b611c246020830186611171565b611c316040830185611171565b611c3e6060830184611171565b95945050505050565b7f5265656e7472616e637947756172643a207265656e7472616e742063616c6c005f82015250565b5f611c7b601f83611462565b9150611c8682611c47565b602082019050919050565b5f6020820190508181035f830152611ca881611c6f565b905091905056fea2646970667358221220bc742f8a4431c8ab7f3eacd6897727cb79b03a925cad013d8ca99f6c39fe6a3664736f6c634300081e0033",
    "linkReferences": {}
  },
  "methodIdentifiers": {
    "closePosition(uint256)": "a126d601",
    "initMarginBps()": "ff52d051",
    "liquidate(address)": "2f865568",
    "maintMarginBps()": "05bf2408",
    "maxNotional(uint256)": "8c2d61a2",
    "openPosition(bool,uint256,uint256)": "e3255731",
    "oracle()": "7dc0d1d0",
    "owner()": "8da5cb5b",
    "positions(address)": "55f57510",
    "protocolFees()": "1ad8b03b",
    "takerFeeBps()": "d448eebc",
    "withdrawFees(address,uint256)": "ad3b1b47"
  },
  "id": 24
}